{
  "contractName": "StampRally",
  "abi": [
    {
      "constant": true,
      "inputs": [],
      "name": "numStamps",
      "outputs": [
        {
          "name": "",
          "type": "uint8"
        }
      ],
      "payable": false,
      "stateMutability": "view",
      "type": "function"
    },
    {
      "constant": true,
      "inputs": [
        {
          "name": "",
          "type": "address"
        }
      ],
      "name": "playerToRallyCard",
      "outputs": [
        {
          "name": "id",
          "type": "uint64"
        },
        {
          "name": "valid",
          "type": "bool"
        }
      ],
      "payable": false,
      "stateMutability": "view",
      "type": "function"
    },
    {
      "inputs": [
        {
          "name": "_numStamps",
          "type": "uint8"
        }
      ],
      "payable": false,
      "stateMutability": "nonpayable",
      "type": "constructor"
    },
    {
      "constant": false,
      "inputs": [
        {
          "name": "_position",
          "type": "uint8"
        },
        {
          "name": "_hashedPassphrase",
          "type": "bytes32"
        },
        {
          "name": "_url",
          "type": "string"
        }
      ],
      "name": "setStamp",
      "outputs": [],
      "payable": false,
      "stateMutability": "nonpayable",
      "type": "function"
    },
    {
      "constant": true,
      "inputs": [
        {
          "name": "_passphrase",
          "type": "string"
        }
      ],
      "name": "generateHash",
      "outputs": [
        {
          "name": "hashed",
          "type": "bytes32"
        }
      ],
      "payable": false,
      "stateMutability": "pure",
      "type": "function"
    },
    {
      "constant": false,
      "inputs": [
        {
          "name": "_position",
          "type": "uint8"
        },
        {
          "name": "_passphrase",
          "type": "string"
        }
      ],
      "name": "collectStamp",
      "outputs": [],
      "payable": false,
      "stateMutability": "nonpayable",
      "type": "function"
    },
    {
      "constant": true,
      "inputs": [
        {
          "name": "_position",
          "type": "uint8"
        }
      ],
      "name": "getStampImage",
      "outputs": [
        {
          "name": "",
          "type": "string"
        }
      ],
      "payable": false,
      "stateMutability": "view",
      "type": "function"
    },
    {
      "constant": true,
      "inputs": [
        {
          "name": "_position",
          "type": "uint8"
        },
        {
          "name": "_user",
          "type": "address"
        }
      ],
      "name": "userHasStamp",
      "outputs": [
        {
          "name": "stamp",
          "type": "bool"
        }
      ],
      "payable": false,
      "stateMutability": "view",
      "type": "function"
    }
  ],
  "bytecode": "0x60806040523480156200001157600080fd5b50604051602080620010fd833981018060405260208110156200003357600080fd5b8101908080519060200190929190505050806000806101000a81548160ff021916908360ff1602179055506000809054906101000a900460ff1660ff166001816200007f919062000087565b50506200016c565b815481835581811115620000b757600202816002028360005260206000209182019101620000b69190620000bc565b5b505050565b620000f591905b80821115620000f157600080820160009055600182016000620000e79190620000f8565b50600201620000c3565b5090565b90565b50805460018160011615610100020316600290046000825580601f1062000120575062000141565b601f01602090049060005260206000209081019062000140919062000144565b5b50565b6200016991905b80821115620001655760008160009055506001016200014b565b5090565b90565b610f81806200017c6000396000f3fe608060405260043610610083576000357c0100000000000000000000000000000000000000000000000000000000900463ffffffff1680633eab1b1b146100885780635092dee4146100b957806383712bcd1461012f578063b063152a1461020e578063bee49e32146102ea578063db7107c5146103bf578063e8efcbf514610476575b600080fd5b34801561009457600080fd5b5061009d6104fa565b604051808260ff1660ff16815260200191505060405180910390f35b3480156100c557600080fd5b50610115600480360360408110156100dc57600080fd5b81019080803560ff169060200190929190803573ffffffffffffffffffffffffffffffffffffffff16906020019092919050505061050c565b604051808215151515815260200191505060405180910390f35b34801561013b57600080fd5b5061020c6004803603606081101561015257600080fd5b81019080803560ff169060200190929190803590602001909291908035906020019064010000000081111561018657600080fd5b82018360208201111561019857600080fd5b803590602001918460018302840111640100000000831117156101ba57600080fd5b91908080601f016020809104026020016040519081016040528093929190818152602001838380828437600081840152601f19601f8201169050808301925050505050505091929192905050506106cc565b005b34801561021a57600080fd5b506102d46004803603602081101561023157600080fd5b810190808035906020019064010000000081111561024e57600080fd5b82018360208201111561026057600080fd5b8035906020019184600183028401116401000000008311171561028257600080fd5b91908080601f016020809104026020016040519081016040528093929190818152602001838380828437600081840152601f19601f82011690508083019250505050505050919291929050505061073c565b6040518082815260200191505060405180910390f35b3480156102f657600080fd5b506103bd6004803603604081101561030d57600080fd5b81019080803560ff1690602001909291908035906020019064010000000081111561033757600080fd5b82018360208201111561034957600080fd5b8035906020019184600183028401116401000000008311171561036b57600080fd5b91908080601f016020809104026020016040519081016040528093929190818152602001838380828437600081840152601f19601f8201169050808301925050505050505091929192905050506107d1565b005b3480156103cb57600080fd5b506103fb600480360360208110156103e257600080fd5b81019080803560ff169060200190929190505050610c26565b6040518080602001828103825283818151815260200191508051906020019080838360005b8381101561043b578082015181840152602081019050610420565b50505050905090810190601f1680156104685780820380516001836020036101000a031916815260200191505b509250505060405180910390f35b34801561048257600080fd5b506104c56004803603602081101561049957600080fd5b81019080803573ffffffffffffffffffffffffffffffffffffffff169060200190929190505050610d3e565b604051808367ffffffffffffffff1667ffffffffffffffff168152602001821515151581526020019250505060405180910390f35b6000809054906101000a900460ff1681565b6000826000809054906101000a900460ff1660ff168160ff1610151561053157600080fd5b610539610d83565b600360008573ffffffffffffffffffffffffffffffffffffffff1673ffffffffffffffffffffffffffffffffffffffff1681526020019081526020016000206040805190810160405290816000820160009054906101000a900467ffffffffffffffff1667ffffffffffffffff1667ffffffffffffffff1681526020016000820160089054906101000a900460ff1615151515815250509050806020015115156105e75760009250506106c5565b6105ef610da9565b6002826000015167ffffffffffffffff1681548110151561060c57fe5b90600052602060002001602060405190810160405290816000820180548060200260200160405190810160405280929190818152602001828054801561069657602002820191906000526020600020906000905b82829054906101000a900460ff161515815260200190600101906020826000010492830192600103820291508084116106605790505b505050505081525050905080600001518660ff168151811015156106b657fe5b90602001906020020151935050505b5092915050565b826000809054906101000a900460ff1660ff168160ff161015156106ef57600080fd5b600060018560ff1681548110151561070357fe5b9060005260206000209060020201905083816000018190555082816001019080519060200190610734929190610dbd565b505050505050565b6000816040516020018080602001828103825283818151815260200191508051906020019080838360005b83811015610782578082015181840152602081019050610767565b50505050905090810190601f1680156107af5780820380516001836020036101000a031916815260200191505b5092505050604051602081830303815290604052805190602001209050919050565b816000809054906101000a900460ff1660ff168160ff161015156107f457600080fd5b6107fc610d83565b600360003373ffffffffffffffffffffffffffffffffffffffff1673ffffffffffffffffffffffffffffffffffffffff1681526020019081526020016000206040805190810160405290816000820160009054906101000a900467ffffffffffffffff1667ffffffffffffffff1667ffffffffffffffff1681526020016000820160089054906101000a900460ff161515151581525050905080602001511515610ab857600067ffffffffffffffff90508067ffffffffffffffff16600280549050101515610959576040517f08c379a00000000000000000000000000000000000000000000000000000000081526004018080602001828103825260218152602001807f52656163686564206d6178696d756d206e756d626572206f6620706c6179657281526020017f730000000000000000000000000000000000000000000000000000000000000081525060400191505060405180910390fd5b6000600280549050905060606000809054906101000a900460ff1660ff166040519080825280602002602001820160405280156109a55781602001602082028038833980820191505090505b50905060026020604051908101604052808381525090806001815401808255809150509060018203906000526020600020016000909192909190915060008201518160000190805190602001906109fd929190610e3d565b5050505060408051908101604052808367ffffffffffffffff16815260200160011515815250600360003373ffffffffffffffffffffffffffffffffffffffff1673ffffffffffffffffffffffffffffffffffffffff16815260200190815260200160002060008201518160000160006101000a81548167ffffffffffffffff021916908367ffffffffffffffff16021790555060208201518160000160086101000a81548160ff0219169083151502179055509050505050505b6000610ac38461073c565b9050610acd610ee3565b60018660ff16815481101515610adf57fe5b906000526020600020906002020160408051908101604052908160008201548152602001600182018054600181600116156101000203166002900480601f016020809104026020016040519081016040528092919081815260200182805460018160011615610100020316600290048015610b9b5780601f10610b7057610100808354040283529160200191610b9b565b820191906000526020600020905b815481529060010190602001808311610b7e57829003601f168201915b50505050508152505090508060000151821415610c1e5760006002846000015167ffffffffffffffff16815481101515610bd157fe5b9060005260206000200190506001816000018860ff16815481101515610bf357fe5b90600052602060002090602091828204019190066101000a81548160ff021916908315150217905550505b505050505050565b6060610c32823361050c565b15610d2557610c3f610ee3565b60018360ff16815481101515610c5157fe5b906000526020600020906002020160408051908101604052908160008201548152602001600182018054600181600116156101000203166002900480601f016020809104026020016040519081016040528092919081815260200182805460018160011615610100020316600290048015610d0d5780601f10610ce257610100808354040283529160200191610d0d565b820191906000526020600020905b815481529060010190602001808311610cf057829003601f168201915b50505050508152505090508060200151915050610d39565b602060405190810160405280600081525090505b919050565b60036020528060005260406000206000915090508060000160009054906101000a900467ffffffffffffffff16908060000160089054906101000a900460ff16905082565b6040805190810160405280600067ffffffffffffffff1681526020016000151581525090565b602060405190810160405280606081525090565b828054600181600116156101000203166002900490600052602060002090601f016020900481019282601f10610dfe57805160ff1916838001178555610e2c565b82800160010185558215610e2c579182015b82811115610e2b578251825591602001919060010190610e10565b5b509050610e399190610f00565b5090565b82805482825590600052602060002090601f01602090048101928215610ed25791602002820160005b83821115610ea357835183826101000a81548160ff0219169083151502179055509260200192600101602081600001049283019260010302610e66565b8015610ed05782816101000a81549060ff0219169055600101602081600001049283019260010302610ea3565b505b509050610edf9190610f25565b5090565b604080519081016040528060008019168152602001606081525090565b610f2291905b80821115610f1e576000816000905550600101610f06565b5090565b90565b610f5291905b80821115610f4e57600081816101000a81549060ff021916905550600101610f2b565b5090565b9056fea165627a7a72305820970eb8e17c8c778ed56b77fc719251f59b862e74c8c16218387bc6d3d897a3d50029",
  "source": "pragma solidity 0.5.0;\n\n\ncontract StampRally {\n  uint8 public numStamps;\n  \n  struct StampKey {\n    bytes32 hashedPassphrase;\n    string url;\n  }\n\n  // All the hashed passphrases are stored here \n  StampKey[] internal stampKeys;\n  \n  // Represents one users Stamp Rally \"Card\" \n  struct RallyCard {\n    bool[] stamps;\n  }\n\n  // all cards in the game\n  RallyCard[] internal cards;\n\n  // links to a Rally Card\n  struct PlayerRallyCard {\n    uint64 id;\n    bool valid;\n  }\n\n  // lookup table between player addresses and card id\n  mapping (address => PlayerRallyCard) public playerToRallyCard;\n\n  constructor(uint8 _numStamps) public {\n    numStamps = _numStamps;\n    stampKeys.length = numStamps;\n  }\n\n  modifier validPosition(uint8 _position) {\n    require(_position < numStamps); // in bounds\n    _;\n  }\n  \n  function setStamp(uint8 _position, bytes32 _hashedPassphrase, string memory _url) public validPosition(_position) {\n    StampKey storage s = stampKeys[_position];\n    s.hashedPassphrase = _hashedPassphrase;\n    s.url = _url;\n  }\n\n  // Unsalted hash\n  function generateHash(string memory _passphrase) public pure returns (bytes32 hashed) {\n    return keccak256(abi.encode(_passphrase));\n  }\n  \n  function collectStamp(uint8 _position, string memory _passphrase) public validPosition(_position) {\n    PlayerRallyCard memory prc = playerToRallyCard[msg.sender];\n    if (!prc.valid) {\n      uint64 max = 2**64 - 1;\n      require(cards.length < max, \"Reached maximum number of players\");\n      // make a new card\n      uint64 id = uint64(cards.length);\n      bool[] memory s = new bool[](numStamps);\n      cards.push(RallyCard(s));\n      playerToRallyCard[msg.sender] = PlayerRallyCard(id, true);\n    }\n    bytes32 hash = generateHash(_passphrase);\n    StampKey memory sk = stampKeys[_position];\n    if (hash == sk.hashedPassphrase) {\n      RallyCard storage rc = cards[prc.id];\n      rc.stamps[_position] = true;\n    }\n  }\n\n  // retrieves a stamp url for the sender\n  function getStampImage(uint8 _position) public view returns (string memory) {\n    if (userHasStamp(_position, msg.sender)) {\n      StampKey memory sk = stampKeys[_position];\n      return sk.url;\n    }\n    return \"\";\n  }\n\n  function userHasStamp(uint8 _position, address _user) public view validPosition(_position) returns (bool stamp) {\n    PlayerRallyCard memory prc = playerToRallyCard[_user];\n    if(!prc.valid) {\n      return false;\n    }\n    RallyCard memory rc = cards[prc.id];\n    return rc.stamps[_position];\n  }\n  \n}\n",
  "sourcePath": "/Users/annkilzer/dev/blockchain-stamp-rally/contracts/StampRally.sol",
  "compiler": {
    "name": "solc",
    "version": "0.5.0+commit.1d4f565a.Emscripten.clang"
  },
  "schemaVersion": "3.0.1",
  "updatedAt": "2019-01-16T13:18:30.682Z",
  "devdoc": {
    "methods": {}
  },
  "userdoc": {
    "methods": {}
  }
}